:040000006CEF00F0B1
:0600080079821CED11F0ED
:100018007980D8CF86F0E8CF87F0E0CF88F0FACFA4
:1000280089F0FBCF8AF0E9CF8BF0EACF8CF0E1CFF3
:100038008DF0E2CF8EF0D9CF8FF0DACF90F0F3CFFA
:1000480091F0F4CF92F0F6CF93F0F7CF94F0F8CF89
:1000580095F0F5CF96F079C097F07AC098F07BC00C
:1000680099F07CC09AF09EAA07D0ABA203D0AB98B7
:1000780000F0AB88B7EC18F09AC07CF099C07BF020
:1000880098C07AF097C079F096C0F5FF95C0F8FF50
:1000980094C0F7FF93C0F6FF92C0F4FF91C0F3FF3E
:1000A80090C0DAFF8FC0D9FF8EC0E2FF8DC0E1FF9C
:1000B8008CC0EAFF8BC0E9FF8AC0FBFF89C0FAFF4A
:1000C80088C0E0FF87C0E8FF86C0D8FF799010009D
:0400D800FCEF18F031
:10060000002D2D2D4D61696E2D2D2D0050005100B6
:0506100053005800003A
:10061600290E0001A86F010EA96F120EAA6F060E11
:10062600AB6FE7EC15F0A8C0C8F2A9C0C9F2C8C202
:10063600A1F0C9C2A2F0ACEC14F0A1C0CAF2A2C0EB
:10064600CBF2CAC29BF0CBC29CF0000E00019E6F9B
:100656000F0E9D6F7FEC19F09BC0CAF29CC0CBF2C7
:100666001BEC19F0EAEC19F093969494F40E000141
:10067600A96F010EAA6F000EAB6F000EAC6FBEEC39
:1006860017F0000E0101256F000E246F5CEC13F0CD
:1006960007EC1AF0000E00019D6F020E9E6F0DEC26
:1006A6001AF09BC09FF09CC0A0F038EC19F0000E29
:1006B6000001AA6F020EAB6F120EAC6F060EAD6F85
:1006C60042EC16F00001AA51AB11D8B4E3D71BECEB
:1006D60019F0000E0001A86F020EA96F120EAA6F84
:1006E600060EAB6FE7EC15F0A8C0CCF2A9C0CDF2B0
:1006F600320E00019D6F020E9E6F0DEC1AF09BC02C
:100706009FF09CC0A0F038EC19F0320E0001AA6FE1
:10071600020EAB6F120EAC6F060EAD6F42EC16F00A
:100726000001AA51AB11D8B4E3D71BEC19F0320E75
:100736000001A86F020EA96F120EAA6F060EAB6F0C
:10074600E7EC15F0A8C0D0F2A9C0D1F2640E000102
:100756009D6F020E9E6F0DEC1AF09BC09FF09CC021
:10076600A0F038EC19F0640E0001AA6F020EAB6F10
:10077600120EAC6F060EAD6F42EC16F00001AA51D8
:10078600AB11D8B4E3D71BEC19F0640E0001A86FC7
:10079600020EA96F120EAA6F060EAB6FE7EC15F0EC
:1007A600A8C0CEF2A9C0CFF2960E00019D6F020E30
:1007B6009E6F0DEC1AF09BC09FF09CC0A0F038EC29
:1007C60019F0960E0001AA6F020EAB6F120EAC6FF7
:1007D600060EAD6F42EC16F00001AA51AB11D8B46B
:1007E600E3D71BEC19F0960E0001A86F020EA96F55
:1007F600120EAA6F060EAB6FE7EC15F0A8C0D2F288
:10080600A9C0D3F2000E0201D56F000ED46FD5BF7A
:1008160008D0D55105E1080ED45DD8B07FD101D0FE
:100826007DD11BEC19F00201D451CC25D96ED551DE
:10083600CD21DA6E630EDE18D8A407D0010E0001B2
:10084600E46F050EE36F8C80E0D00201D451CC2515
:10085600D96ED551CD21DA6E640EDE18D8A407D034
:10086600010E0001E46F250EE36F8C82CED00201EB
:10087600D451CC25D96ED551CD21DA6E650EDE1850
:10088600D8A407D0010E0001E46F490EE36F8C84F3
:10089600BCD00201D451CC25D96ED551CD21DA6E0A
:1008A600660EDE18D8A408D0010E0001E46F5D0EB6
:1008B600E36F8C868C88A9D00201D451CC25D96EE1
:1008C600D551CD21DA6E670EDE18D8A407D0010EF9
:1008D6000001E46F880EE36F8C8A97D00201D45131
:1008E600CC25D96ED551CD21DA6E610EDE18D8A48D
:1008F60008D0010E0001E46FB80EE36F8C8C8C8E6D
:1009060084D00201D451CC25D96ED551CD21DA6ED1
:10091600620EDE18D8A408D0010E0001E46FED0EB9
:10092600E36F8A808A8271D00201D451CC25D96EB8
:10093600D551CD21DA6E430EDE18D8A407D0020EAB
:100946000001E46F0B0EE36F8A845FD00201D4517D
:10095600CC25D96ED551CD21DA6E440EDE18D8A439
:1009660005D0020E0001E46F4B0E3FD00201D451B8
:10097600CC25D96ED551CD21DA6E450EDE18D8A418
:1009860005D0020E0001E46F930E2FD00201D45160
:10099600CC25D96ED551CD21DA6E460EDE18D8A4F7
:1009A60005D0020E0001E46FBA0E1FD00201D45129
:1009B600CC25D96ED551CD21DA6E470EDE18D8A4D6
:1009C60005D0030E0001E46F100E0FD00201D451C2
:1009D600CC25D96ED551CD21DA6E520EDE18D8A4AB
:1009E60006D0000E0001E46F000EE36F0ED0020188
:1009F600D451D225D96ED551D321DA6E5A0EDE18CE
:100A0600D8A403D00001E369E469CAC29BF0CBC253
:100A16009CF0000E00019E6F040E9D6F93EC16F085
:100A26009BC0D5F09CC0D6F087EC17F0CAC29BF0ED
:100A3600CBC29CF0000E00019E6FC80E9D6F93EC1A
:100A460016F09BC0A3F09CC0A4F0C6EC19F0290ECA
:100A560000019D6F010E9E6F0DEC1AF09BC09FF07A
:100A66009CC0A0F038EC19F0290E0001AA6F010E07
:100A7600AB6F100EAC6F060EAD6F42EC16F00001B8
:100A8600AA51AB11D8B42FD0290E00019D6F010ECB
:100A96009E6F0DEC1AF09BC09FF09CC0A0F038EC46
:100AA60019F0290E0001AA6F010EAB6F0C0EAC6F88
:100AB600060EAD6F42EC16F00001AA51AB11D8A498
:100AC60025D0290EAA6F010EAB6F0E0EAC6F060E67
:100AD600AD6F42EC16F00001AA51AB11D8B4D4D7D1
:100AE6001BEC19F01200290E0001AA6F010EAB6F64
:100AF6000E0EAC6F060EAD6F42EC16F00001AA5159
:100B0600AB11D8B403D01BEC19F012000201D44B80
:100B1600D52BD5BF86D6D55101E17DD6000ED76F30
:100B2600000ED66FD7BF08D0D75105E1080ED65DA7
:100B3600D8B07FD101D07DD11BEC19F00201D6517E
:100B4600D025D96ED751D121DA6E630EDE18D8A41E
:100B560007D0010E0001E46F050EE36F8C80E0D034
:100B66000201D651D025D96ED751D121DA6E640E45
:100B7600DE18D8A407D0010E0001E46F250EE36F3E
:100B86008C82CED00201D651D025D96ED751D12133
:100B9600DA6E650EDE18D8A407D0010E0001E46FE8
:100BA600490EE36F8C84BCD00201D651D025D96E94
:100BB600D751D121DA6E660EDE18D8A408D0010E00
:100BC6000001E46F5D0EE36F8C868C88A9D002016C
:100BD600D651D025D96ED751D121DA6E670EDE18DF
:100BE600D8A407D0010E0001E46F880EE36F8C8A4B
:100BF60097D00201D651D025D96ED751D121DA6EC0
:100C0600610EDE18D8A408D0010E0001E46FB80EFC
:100C1600E36F8C8C8C8E84D00201D651D025D96E90
:100C2600D751D121DA6E620EDE18D8A408D0010E93
:100C36000001E46FED0EE36F8A828A8071D00201B3
:100C4600D651D025D96ED751D121DA6E430EDE1892
:100C5600D8A407D0020E0001E46F0B0EE36F8A845E
:100C66005FD00201D651D025D96ED751D121DA6E87
:100C7600440EDE18D8A405D0020E0001E46F4B0E18
:100C86003FD00201D651D025D96ED751D121DA6E87
:100C9600450EDE18D8A405D0020E0001E46F930EAF
:100CA6002FD00201D651D025D96ED751D121DA6E77
:100CB600460EDE18D8A405D0020E0001E46FBA0E67
:100CC6001FD00201D651D025D96ED751D121DA6E67
:100CD600470EDE18D8A405D0030E0001E46F100EEF
:100CE6000FD00201D651D025D96ED751D121DA6E57
:100CF600520EDE18D8A406D0000E0001E46F000ED6
:100D0600E36F0ED00201D651D025D96ED751D1212D
:100D1600DA6E5A0EDE18D8A403D00001E369E4693E
:100D2600CAC29BF0CBC29CF0000E00019E6F040E5F
:100D36009D6F93EC16F09BC0D5F09CC0D6F087EC67
:100D460017F0CAC29BF0CBC29CF0000E00019E6F4A
:100D5600C80E9D6F93EC16F09BC0A3F09CC0A4F048
:100D6600C6EC19F0290E00019D6F010E9E6F0DEC69
:100D76001AF09BC09FF09CC0A0F038EC19F0290E29
:100D86000001AA6F010EAB6F100EAC6F060EAD6FB1
:100D960042EC16F00001AA51AB11D8B42FD0290E9F
:100DA60000019D6F010E9E6F0DEC1AF09BC09FF027
:100DB6009CC0A0F038EC19F0290E0001AA6F010EB4
:100DC600AB6F0C0EAC6F060EAD6F42EC16F0000169
:100DD600AA51AB11D8A425D0290EAA6F010EAB6F6C
:100DE6000E0EAC6F060EAD6F42EC16F00001AA5166
:100DF600AB11D8B4D4D71BEC19F01200290E0001A0
:100E0600AA6F010EAB6F0E0EAC6F060EAD6F42EC05
:100E160016F00001AA51AB11D8B403D01BEC19F09F
:100E260012000201D64BD72BD7BF86D6D75101E188
:100E36007DD6000ED96F000ED86FD9BF08D0D95114
:100E460005E1080ED85DD8B07FD101D07DD11BEC6D
:100E560019F00201D851CE25D96ED951CF21DA6EBB
:100E6600630EDE18D8A407D0010E0001E46F050E4C
:100E7600E36F8C80E0D00201D851CE25D96ED951CE
:100E8600CF21DA6E640EDE18D8A407D0010E000159
:100E9600E46F250EE36F8C82CED00201D851CE25A9
:100EA600D96ED951CF21DA6E650EDE18D8A407D0D7
:100EB600010E0001E46F490EE36F8C84BCD0020181
:100EC600D851CE25D96ED951CF21DA6E660EDE18ED
:100ED600D8A408D0010E0001E46F5D0EE36F8C8686
:100EE6008C88A9D00201D851CE25D96ED951CF21EF
:100EF600DA6E670EDE18D8A407D0010E0001E46F83
:100F0600880EE36F8C8A97D00201D851CE25D96E10
:100F1600D951CF21DA6E610EDE18D8A408D0010EA1
:100F26000001E46FB80EE36F8C8C8C8E84D00201C6
:100F3600D851CE25D96ED951CF21DA6E620EDE1880
:100F4600D8A408D0010E0001E46FED0EE36F8A828B
:100F56008A8071D00201D851CE25D96ED951CF21C0
:100F6600DA6E430EDE18D8A407D0020E0001E46F35
:100F76000B0EE36F8A845FD00201D851CE25D96E5D
:100F8600D951CF21DA6E440EDE18D8A405D0020E50
:100F96000001E46F4B0E3FD00201D851CE25D96E29
:100FA600D951CF21DA6E450EDE18D8A405D0020E2F
:100FB6000001E46F930E2FD00201D851CE25D96ED1
:100FC600D951CF21DA6E460EDE18D8A405D0020E0E
:100FD6000001E46FBA0E1FD00201D851CE25D96E9A
:100FE600D951CF21DA6E470EDE18D8A405D0030EEC
:100FF6000001E46F100E0FD00201D851CE25D96E34
:10100600D951CF21DA6E520EDE18D8A406D0000EC2
:101016000001E46F000EE36F0ED00201D851D22515
:10102600D96ED951D321DA6E5A0EDE18D8A403D060
:101036000001E369E469CAC29BF0CBC29CF0000ED2
:1010460000019E6F040E9D6F93EC16F09BC0D5F0C9
:101056009CC0D6F087EC17F0CAC29BF0CBC29CF0BE
:10106600000E00019E6FC80E9D6F93EC16F09BC09C
:10107600A3F09CC0A4F0C6EC19F0290E00019D6FE8
:10108600010E9E6F0DEC1AF09BC09FF09CC0A0F065
:1010960038EC19F0290E0001AA6F010EAB6F100E85
:1010A600AC6F060EAD6F42EC16F00001AA51AB1103
:1010B600D8B42FD0290E00019D6F010E9E6F0DEC46
:1010C6001AF09BC09FF09CC0A0F038EC19F0290ED6
:1010D6000001AA6F010EAB6F0C0EAC6F060EAD6F62
:1010E60042EC16F00001AA51AB11D8A425D0290E66
:1010F600AA6F010EAB6F0E0EAC6F060EAD6F42EC13
:1011060016F00001AA51AB11D8B4D4D71BEC19F0D4
:101116001200290E0001AA6F010EAB6F0E0EAC6F06
:10112600060EAD6F42EC16F00001AA51AB11D8B411
:1011360003D01BEC19F012000201D84BD92BD9BFF2
:1011460086D6D95101E17DD6000EDB6F000EDA6F2F
:10115600DBBF0AD0DB5106E1080EDA5DD8B005EF39
:1011660004F002D005EF04F01BEC19F00201DA518D
:10117600D225D96EDB51D321DA6E630EDE18D8A4E0
:1011860007D0010E0001E46F050EE36F8C80E0D0FE
:101196000201DA51D225D96EDB51D321DA6E640E03
:1011A600DE18D8A407D0010E0001E46F250EE36F08
:1011B6008C82CED00201DA51D225D96EDB51D321F1
:1011C600DA6E650EDE18D8A407D0010E0001E46FB2
:1011D600490EE36F8C84BCD00201DA51D225D96E58
:1011E600DB51D321DA6E660EDE18D8A408D0010EC4
:1011F6000001E46F5D0EE36F8C868C88A9D0020136
:10120600DA51D225D96EDB51D321DA6E670EDE189C
:10121600D8A407D0010E0001E46F880EE36F8C8A14
:1012260097D00201DA51D225D96EDB51D321DA6E7D
:10123600610EDE18D8A408D0010E0001E46FB80EC6
:10124600E36F8C8C8C8E84D00201DA51D225D96E54
:10125600DB51D321DA6E620EDE18D8A408D0010E57
:101266000001E46FED0EE36F8A828A8071D002017D
:10127600DA51D225D96EDB51D321DA6E430EDE1850
:10128600D8A407D0020E0001E46F0B0EE36F8A8428
:101296005FD00201DA51D225D96EDB51D321DA6E45
:1012A600440EDE18D8A405D0020E0001E46F4B0EE2
:1012B6003FD00201DA51D225D96EDB51D321DA6E45
:1012C600450EDE18D8A405D0020E0001E46F930E79
:1012D6002FD00201DA51D225D96EDB51D321DA6E35
:1012E600460EDE18D8A405D0020E0001E46FBA0E31
:1012F6001FD00201DA51D225D96EDB51D321DA6E25
:10130600470EDE18D8A405D0030E0001E46F100EB8
:101316000FD00201DA51D225D96EDB51D321DA6E14
:10132600520EDE18D8A406D0000E0001E46F000E9F
:10133600E36F0ED00201DA51D225D96EDB51D321EB
:10134600DA6E5A0EDE18D8A403D00001E369E46908
:10135600CAC29BF0CBC29CF0000E00019E6F040E29
:101366009D6F93EC16F09BC0D5F09CC0D6F087EC31
:1013760017F0CAC29BF0CBC29CF0000E00019E6F14
:10138600C80E9D6F93EC16F09BC0A3F09CC0A4F012
:10139600C6EC19F0290E00019D6F010E9E6F0DEC33
:1013A6001AF09BC09FF09CC0A0F038EC19F0290EF3
:1013B6000001AA6F010EAB6F100EAC6F060EAD6F7B
:1013C60042EC16F00001AA51AB11D8B42FD0290E69
:1013D60000019D6F010E9E6F0DEC1AF09BC09FF0F1
:1013E6009CC0A0F038EC19F0290E0001AA6F010E7E
:1013F600AB6F0C0EAC6F060EAD6F42EC16F0000133
:10140600AA51AB11D8A425D0290EAA6F010EAB6F35
:101416000E0EAC6F060EAD6F42EC16F00001AA512F
:10142600AB11D8B4D4D71BEC19F01200290E000169
:10143600AA6F010EAB6F0E0EAC6F060EAD6F42ECCF
:1014460016F00001AA51AB11D8B403D01BEC19F069
:1014560012000201DA4BDB2BDBBF86D6DB5101E142
:101466007BD605EF04F00001CA51800B01010D6F18
:101476000001CA51CA250101136F0001C9AF02D08C
:101486000101138101011351D8B40FD01329D8A437
:1014960009D0000E0001C76F000EC86F000EC96F9D
:1014A600000ECA6F0001C98F09D0000E0001C76F78
:1014B600000EC86F000EC96F000ECA6FCE51800BAA
:1014C60001010D1B0001CE51CE2501010E6F000159
:1014D600CDAF02D001010E8101010E51D8B40FD05B
:1014E6000E29D8A409D0000E0001CB6F000ECC6FD8
:1014F600000ECD6F000ECE6F0001CD8F09D0000E0D
:101506000001CB6F000ECC6F000ECD6F000ECE6FBC
:1015160001010E51D8B403D01351D8A40AD0000E3D
:101526000001C76F000EC86F000EC96F000ECA6FAC
:1015360012000001CD51C703F3CF18F1F4CF19F112
:10154600010118510F6F106B116B126B1951146F4B
:10155600156B166B176B0001CC51C803F3CF18F14E
:10156600F4CF19F1010118510F27000E1023112392
:10157600122319511427000E1523162317230001D1
:10158600CB51C903F3CF18F1F4CF19F1010118516A
:101596000F27000E10231123122319511427000EB2
:1015A60015231623172311C112F110C111F10FC112
:1015B60010F10F6B0001CB51C803F3CF18F1F4CF34
:1015C60019F1010118510F2719511023000E11238B
:1015D600000E12230001CC51C703F3CF18F1F4CF4C
:1015E60019F1010118510F2719511023000E11236B
:1015F600000E122311C112F110C111F10FC110F129
:101606000F6B0001CB51C703F3CF18F1F4CF19F1DB
:10161600010118510F2719511023000E1123000E36
:1016260012230001CD51C803F3CF18F1F4CF19F1FD
:1016360001011851142719511523000E1623000E07
:1016460017230001CC51C903F3CF18F1F4CF19F1D8
:1016560001011851142719511523000E1623000EE7
:1016660017230001CD51C903F3CF18F1F4CF19F1B7
:10167600010118510001CF6F010119510001D06F0E
:10168600D16BD26BD1C0D2F0D0C0D1F0CFC0D0F0E8
:10169600CF6BCF51010114270001D0510101152351
:1016A6000001D151010116230001D2510101172376
:1016B6000FC1CFF010C1D0F011C1D1F012C1D2F0DC
:1016C600190E06D00001D890D233D133D033CF33A0
:1016D600E82EF8D7CF51010114270001D05101019E
:1016E60015230001D151010116230001D251010138
:1016F600172311C112F110C111F10FC110F10F6BB7
:101706000E5113C1CFF00001D06BCF27000ED023AE
:10171600820ECF250101186FFF0E0001D0210101B5
:10172600196F0FD0D890143715371637173712BFE1
:101736001481D8900F371037113712371807D8A0F1
:10174600190716AFEFD7000E0E6F12AF21D0FF0E9E
:101756000F150001CF6FFF0E010110150001D06FAC
:10176600FF0E010111150001D16F7F0E0101121547
:101776000001D26FCF51D011D111D211D8B403D0FC
:10178600010E010104D0010114A102D0010E0E6F59
:101796000E51D8B421D0010E1427000E152316239E
:1017A600172317A119D014C1CFF015C1D0F016C157
:1017B600D1F017C1D2F00001D235D233D133D033B4
:1017C600CF33CFC014F1D0C015F1D1C016F1D2C0BD
:1017D60017F10101184B192B19BF0DD0195103E14F
:1017E6001829D8A008D0000E146F000E156F800EB1
:1017F600166F7F0E20D019BF05D019510EE11805BE
:10180600D8B00BD0000E146F000E156F000E166FB9
:10181600000E176F000E0D6F0FD018C113F1FF0EDB
:101826001417FF0E15177F0E1617000E171713B194
:10183600168FD8901331176F0D51171314C1C7F0B7
:1018460015C1C8F016C1C9F017C1CAF012000001CF
:10185600BE51800B0101006F0001BE51BE25010182
:101866000B6F0001BDAF02D001010B8101010B51CD
:10187600D8B40FD00B29D8A409D0000E0001BB6F35
:10188600000EBC6F000EBD6F000EBE6F0001BD8F57
:1018960007D0000E0001BB6F000EBC6F000EBD6FBF
:1018A600000EBE6FC251800B0101001B0001C25128
:1018B600C22501010C6F0001C1AF02D001010C81EC
:1018C60001010C51D8B40FD00C29D8A409D0000EB0
:1018D6000001BF6F000EC06F000EC16F000EC26F19
:1018E6000001C18F07D0000E0001BF6F000EC06F50
:1018F600000EC16F000EC26FBF51C011C111C211DF
:10190600D8A415D0000EBB6F000EBC6F000EBD6FC5
:10191600000EBE6F800EBD137F0EBE13BBC0BBF0A4
:10192600BCC0BCF0BDC0BDF0BEC0BEF0120001011F
:101936000B51D8A412D0000E0001BB6F000EBC6F75
:10194600000EBD6F000EBE6FBBC0BBF0BCC0BCF0CE
:10195600BDC0BDF0BEC0BEF0120001010C510001B9
:10196600C36FC46BC31FC41FC34BC42B01010B51F0
:101976000001C56FC66BC351C527C451C6237F0E70
:10198600C5250101056F000E0001C6210101066F84
:10199600BBC001F1BCC002F1BDC003F1BEC004F181
:1019A600000E0001BB6F000EBC6F000EBD6F000E77
:1019B600BE6F000E0101076F000E086F000E096F63
:1019C600000E0A6F000E0C6F3DD00C51D8B416D025
:1019D600D89001370237033704370001D890BB3758
:1019E600BC37BD37BE3701010AAF02D00001BB814B
:1019F6000101D8900737083709370A370001BF5168
:101A06000101015D0001C051010102590001C151EE
:101A1600010103590001C25101010459D8A011D096
:101A26000A8D0001BF510101015F0001C051010192
:101A3600025B0001C1510101035B0001C2510101BA
:101A4600045B0C2B190E0C65C0D701510211031152
:101A56000411D8B416D0078114D00001D890BB3732
:101A6600BC37BD37BE3701010AAF02D00001BB81CA
:101A76000101D8900737083709370A370507D8A074
:101A860006070001BDAFE9D7000E01010C6F0AAFD2
:101A96001ED0FF0E07150001C36FFF0E01010815CA
:101AA6000001C46FFF0E010109150001C56F7F0E0D
:101AB60001010A150001C66FC351C411C511C61133
:101AC600D8A402D0BBA103D0010E01010C6F010105
:101AD6000C51D8B421D0010E0001BB27000EBC2347
:101AE600BD23BE23BEA118D0BBC0C3F0BCC0C4F08A
:101AF600BDC0C5F0BEC0C6F0C635C633C533C43397
:101B0600C333C3C0BBF0C4C0BCF0C5C0BDF0C6C0C3
:101B1600BEF00101054B062B010106BF11D006518F
:101B260003E10529D8A00CD0000E066F0569000E4A
:101B36000001BB6F000EBC6F000EBD6F000EBE6FC6
:101B4600010106BF05D0065113E10505D8B010D036
:101B5600000E066F000E056F000E0001BB6F000E33
:101B6600BC6F000EBD6F000EBE6F000E0101006F50
:101B760005C10BF10BA103D00001BD8F02D00001FE
:101B8600BD9F0101D8900B310001BE6F01010051CC
:101B96000001BE13BBC0BBF0BCC0BCF0BDC0BDF0F5
:101BA600BEC0BEF012001250800B1B6E12501224E3
:101BB600216E11BE21802150D8B40DD02128D8A481
:101BC60008D0000E0F6E000E106E000E116E000E85
:101BD600126E118E08D0000E0F6E000E106E000EE3
:101BE600116E000E126E1650800B1B1A165016241C
:101BF600206E15BE20802050D8B40DD02028D8A441
:101C060008D0000E136E000E146E000E156E000E38
:101C1600166E158E08D0000E136E000E146E000E92
:101C2600156E000E166E2050D8B403D02150D8A4DD
:101C360009D0000E0F6E000E106E000E116E000E13
:101C4600126E120015500F02F3CF26F0F4CF27F0D4
:101C560026501C6E1D6A1E6A1F6A2750226E236A52
:101C6600246A256A14501002F3CF26F0F4CF27F029
:101C760026501C26000E1D221E221F222750222619
:101C8600000E23222422252213501102F3CF26F020
:101C9600F4CF27F026501C26000E1D221E221F22DE
:101CA60027502226000E2322242225221EC01FF0A2
:101CB6001DC01EF01CC01DF01C6A13501002F3CF8D
:101CC60026F0F4CF27F026501C2627501D22000EA2
:101CD6001E22000E1F2214500F02F3CF26F0F4CF5F
:101CE60027F026501C2627501D22000E1E22000E0D
:101CF6001F221EC01FF01DC01EF01CC01DF01C6A56
:101D060013500F02F3CF26F0F4CF27F026501C26EF
:101D160027501D22000E1E22000E1F2215501002F3
:101D2600F3CF26F0F4CF27F0265022262750232281
:101D3600000E2422000E252214501102F3CF26F0A5
:101D4600F4CF27F02650222627502322000E2422E5
:101D5600000E252215501102F3CF26F0F4CF27F0FE
:101D66002650176E2750186E196A1A6A19C01AF08B
:101D760018C019F017C018F0176A17502226185005
:101D86002322195024221A5025221CC017F01DC0E8
:101D960018F01EC019F01FC01AF0190E05D0D89001
:101DA6001A32193218321732E82EF9D7175022266E
:101DB60018502322195024221A5025221EC01FF023
:101DC6001DC01EF01CC01DF01C6A205021C017F05B
:101DD600186A1726000E1822820E1724266EFF0E8A
:101DE6001820276E0FD0D890223623362436253673
:101DF6001FBE2280D8901C361D361E361F3626067C
:101E0600D8A0270624AEEFD7000E206E1FAE16D040
:101E1600FF0E1C14176EFF0E1D14186EFF0E1E14F7
:101E2600196E7F0E1F141A6E1750181019101A10FB
:101E3600D8A402D022A002D0010E206E2050D8B421
:101E46001FD0010E2226000E23222422252225A0A1
:101E560017D022C017F023C018F024C019F025C0EF
:101E66001AF01A341A3219321832173217C022F001
:101E760018C023F019C024F01AC025F0264A272AD4
:101E860027BE0DD0275003E12628D8A008D0000E83
:101E9600226E000E236E800E246E7F0E20D027BE8B
:101EA60005D027500EE12604D8B00BD0000E226EC6
:101EB600000E236E000E246E000E256E000E1B6EA5
:101EC6000FD026C021F0FF0E2216FF0E23167F0E1E
:101ED6002416000E251621B0248ED8902130256EAA
:101EE6001B50251222C00FF023C010F024C011F0A1
:101EF60025C012F012002F50800B3C6E2F502F245D
:101F06003E6E2EBE3E803E50D8B40DD03E28D8A49C
:101F160008D0000E2C6E000E2D6E000E2E6E000EDA
:101F26002F6E2E8E06D0000E2C6E000E2D6E000E1D
:101F36002E6E000E2F6E3350800B3D6E3C503D18BA
:101F4600D8A43C8C335033243D6E32BE3D803D5088
:101F5600D8B40DD03D28D8A408D0000E306E000E9F
:101F6600316E000E326E000E336E328E06D0000ECB
:101F7600306E000E316E000E326E000E336E3E5025
:101F86003D5CD8B022D03CAC02D0800E3C1A3EC09C
:101F96003FF03DC03EF03FC03DF02CC03FF030C0AA
:101FA6002CF03FC030F02DC03FF031C02DF03FC0C7
:101FB60031F02EC03FF032C02EF03FC032F02FC0BD
:101FC6003FF033C02FF03FC033F0000E3F6E3E505F
:101FD600346E356A341E351E344A352A3D50366E07
:101FE600376A345036263550372237BE2CD0375014
:101FF60004E11A0E365CD8A026D02C502D102E10D7
:102006002F10D8B402D0010E01D0000E3F6E000E84
:102016002C6E000E2D6E000E2E6E000E2F6E3DC025
:102026003EF015D03FA005D0D8903F3001093F6E55
:1020360002D0D8903F322CB03F8E2F342F322E3222
:102046002D322C323E2A3D503E5CD8A0EBD73CBC0C
:1020560029D03E50D8A409D0000E2C6E000E2D6E4D
:10206600000E2E6E000E2F6E120030502C263150B0
:102076002D2232502E2233502F222FA083D03FA064
:1020860006D0D8903F323F5001093F6E02D0D8901B
:102096003F322CB03F8E2F342F322E322D322C323F
:1020A6003E2A70D030502C5C31502D5832502E586C
:1020B6002F50800A346E3350800A3458D8B036D048
:1020C6002CC034F02DC035F02EC036F02FC037F0BE
:1020D600341E351E361E371E342A000E3522362291
:1020E600372230503424386E31503520396E325014
:1020F60036203A6E335037203B6EFF0E38242C6E56
:10210600FF0E39202D6EFF0E3A202E6EFF0E3B205D
:102116002F6E800E3C1A3F6C3F50D8A40FD0010E94
:102126002C26000E2D222E222F2208D030502C5E77
:1021360031502D5A32502E5A33502F5A2C502D10C2
:102146002E102F10D8A41CD03F50D8A419D0000EA2
:102156002C6E000E2D6E000E2E6E000E2F6E1200CF
:10216600D8902C362D362E362F363FBE2C803FA0EB
:1021760002D0D88001D0D8903F363E50D8A43E0633
:102186002EAEEED7000E3D6E3FAE0AD03FC034F005
:102196007F0E3416D8A402D02CA002D0010E3D6EBC
:1021A6003D50D8B420D0010E2C26000E2D222E2212
:1021B6002F222FA018D02CC034F02DC035F02EC001
:1021C60036F02FC037F037343732363235323432C4
:1021D60034C02CF035C02DF036C02EF037C02FF0AD
:1021E6003E28D8A43E2A3E28D8B403D03E50D8A4D0
:1021F6000DD0000E2C6E000E2D6E000E2E6E000EF3
:102206002F6E3E50D8A402D0000E3C6E3EA002D0E7
:102216002E8E01D02E9ED8903E302F6E3CBE2F8E35
:102226002CC02CF02DC02DF02EC02EF02FC02FF07C
:1022360012000600FACF4AF0FBCF4BF0E9CF4CF084
:10224600EACF4DF0E1CF4EF0E2CF4FF0D9CF50F0CC
:10225600DACF51F0F3CF52F0F4CF53F0F6CF54F07B
:10226600F7CF55F0F8CF56F0F5CF57F079C058F0C4
:102276007AC059F07BC05AF07CC05BF0775078107A
:10228600D8B49EA018D09E90270E7324736E000EAD
:102296007420746E73C001F074C002F092EC18F0F2
:1022A600700E731822E1020E7418D8A41ED0000E08
:1022B600786E010E19D077047810D8B49EA015D088
:1022C6009E90D90E7324736EFF0E7420746E73C0C5
:1022D60001F074C002F092EC18F073507410D8A498
:1022E60004D0000E786E000E776E000E026E070E9A
:1022F600016E50EC19F001C075F002C076F075C0A1
:1023060001F076C002F0000E02BEFF0E036E046EF0
:10231600010EB4EC12F001C00FF002C010F003C0C1
:1023260011F004C012F00A0E136E280E146EA00EE1
:10233600156E3B0E166ED6EC0DF00FC06FF010C08A
:1023460070F011C071F012C072F0000E306ED80E2F
:10235600316E560E326E470E336E000E136E800EC1
:10236600146E3B0E156E450E166E6FC00FF070C0E4
:1023760010F071C011F072C012F0D6EC0DF00FC063
:1023860028F010C029F011C02AF012C02BF068EC1A
:1023960019F028C02CF029C02DF02AC02EF02BC031
:1023A6002FF07EEC0FF02CC040F02DC041F02EC077
:1023B60042F02FC043F03EEC14F040C0CEFF41C0C7
:1023C600CFFF5BC07CF05AC07BF059C07AF058C092
:1023D60079F057C0F5FF56C0F8FF55C0F7FF54C057
:1023E600F6FF53C0F4FF52C0F3FF51C0DAFF50C0EE
:1023F600D9FF4FC0E2FF4EC0E1FF4DC0EAFF4CC01F
:10240600E9FF4BC0FBFF4AC0FAFF799211000001B9
:10241600B56F0001B551D8A4B0AF1AD0ADC0B1F0B8
:10242600AEC0B2F0AFC0B3F0B0C0B4F0B11FB21FCF
:10243600B31FB41FB12B000EB223B323B423B1C014
:10244600B7F0B2C0B8F0B3C0B9F0B4C0BAF008D0B3
:10245600ADC0B7F0AEC0B8F0AFC0B9F0B0C0BAF01A
:10246600AD51AE11AF11B011D8A409D0000EAD6FA9
:10247600000EAE6F000EAF6F000EB06F1200960E1C
:10248600B66F06D0B62BD890BA33B933B833B73354
:10249600000EB715B16F000EB815B26F000EB91564
:1024A600B36FFE0EBA15B46FB151B211B311B411B8
:1024B600D8B40DD0E7D7B62B010EB727000EB82338
:1024C600B923BA23D890BA33B933B833B733000E29
:1024D600B715B16F000EB815B26F000EB915B36F10
:1024E600FF0EBA15B46FB151B211B311B411D8B40D
:1024F60007D0E1D7B607D890B737B837B937BA3764
:10250600B9BF03D0020EB661F5D7B6B108D0FF0E3B
:10251600B717FF0EB8177F0EB917FF0EBA17D89068
:10252600B633B6C0B1F0B26BB36BB46BB1C0B4F036
:10253600B36BB26BB16BB151B713B251B813B351A0
:10254600B913B451BA13B551D8A4B0AF01D0BA8FEC
:10255600B7C0ADF0B8C0AEF0B9C0AFF0BAC0B0F019
:102566001200096E0950D8A404AE1AD001C005F0B5
:1025760002C006F003C007F004C008F0051E061EE0
:10258600071E081E052A000E06220722082205C07D
:102596000BF006C00CF007C00DF008C00EF008D016
:1025A60001C00BF002C00CF003C00DF004C00EF029
:1025B6000150021003100410D8A409D0000E016EB9
:1025C600000E026E000E036E000E046E1200960ED2
:1025D6000A6E06D00A2AD8900E320D320C320B3211
:1025E600000E0B14056E000E0C14066E000E0D1474
:1025F600076EFE0E0E14086E055006100710081022
:10260600D8B40DD0E7D70A2A010E0B26000E0C22ED
:102616000D220E22D8900E320D320C320B32000EE5
:102626000B14056E000E0C14066E000E0D14076ECC
:10263600FF0E0E14086E0550061007100810D8B4C9
:1026460007D0E1D70A06D8900B360C360D360E3673
:102656000DBE03D0020E0A60F5D70AB008D0FF0EF1
:102666000B16FF0E0C167F0E0D16FF0E0E16D890CB
:102676000A320AC005F0066A076A086A05C008F049
:10268600076A066A056A05500B1206500C120750B7
:102696000D1208500E120950D8A404AE01D00E8EA9
:1026A6000BC001F00CC002F00DC003F00EC004F028
:1026B6001200040E0101255DD8B012006CEC18F072
:1026C6000001A9C0ADF0AAC0AEF0000EAEBFFF0E6D
:1026D600AF6FB06F010E0AEC12F0ADC0CBF0AEC01A
:1026E600CCF0AFC0CDF0B0C0CEF0000E0001BF6F91
:1026F600C00EC06F7F0EC16F440EC26F24C1ADF015
:1027060025C1AEF0AF6BB06B000E0AEC12F0ADC097
:10271600BBF0AEC0BCF0AFC0BDF0B0C0BEF02AEC9E
:102726000CF0BBC0C7F0BCC0C8F0BDC0C9F0BEC08D
:10273600CAF036EC0AF0C7C01AF1C8C01BF1C9C00E
:102746001CF1CAC01DF1CFEC13F01AC124F11BC154
:1027560025F124C126F1020E01012617263B264744
:10276600BD502619DF0B2619BD6E24C126F1010EB8
:102776002617263BBD502619EF0B2619BD6E24C120
:1027860026F125C127F1D89027332633D890273351
:1027960026332651BE6E120001011C351D35236FEE
:1027A6002351D8A409D0000E1A6F000E1B6F000E1D
:1027B6001C6F000E1D6F12001AC11EF11BC11FF106
:1027C6001CC120F11DC121F1200E05D0D890213366
:1027D60020331F331E33E82EF9D71E51226F1C8F6C
:1027E600FF0E1A17FF0E1B17FF0E1C17000E1D17E4
:1027F600960E235F23AF16D02351800A970FD8B0C9
:1028060009D0000E1A6F000E1B6F000E1C6F000E13
:102816001D6F1200D8901D331C331B331A33233F10
:10282600F9D715D01F0E23650FD0000E1A6F000EB4
:102836001B6F000E1C6F000E1D6F1200D8901A370A
:102846001B371C371D3723072351D8A4F7D722512E
:10285600D8B408D01D1F1C1F1B1F1A6D000E1B238A
:102866001C231D231AC11AF11BC11BF11CC11CF12B
:102876001DC11DF1120042344334496E4950D8A49B
:1028860009D0000E406E000E416E000E426E000E24
:10289600436E120040C044F041C045F042C046F0CD
:1028A60043C047F0200E05D0D89047324632453215
:1028B6004432E82EF9D74450486E428EFF0E401639
:1028C600FF0E4116FF0E4216000E4316960E495E87
:1028D60049AE16D04950800A970FD8B009D0000EDD
:1028E600406E000E416E000E426E000E436E1200E8
:1028F600D8904332423241324032493EF9D715D060
:102906001F0E49640FD0000E406E000E416E000E81
:10291600426E000E436E1200D89040364136423663
:10292600433649064950D8A4F7D74850D8B408D0FA
:10293600431E421E411E406C000E4122422243228B
:1029460040C040F041C041F042C042F043C043F0B5
:10295600120003D00001A14BA22BA1C0D9FFA2C037
:10296600DAFF200EDE18D8B4F5D7A1C0D9FFA2C071
:10297600DAFF090EDE18D8B4EDD7000E0001A76FF6
:10298600000EA66F000EA56FA1C0D9FFA2C0DAFF88
:102996002D0EDE18D8A402D0A52B26D0A1C0D9FFB3
:1029A600A2C0DAFF2B0EDE18D8A420D01DD0A6C0F8
:1029B6009BF0A7C09CF0000E00019E6F0A0E9D6F53
:1029C6007FEC19F0A1C0D9FFA2C0DAFFDF500001E9
:1029D600A36FA46B9B51A3279C51A423D00EA325C0
:1029E600A66FFF0EA421A76FA14BA22BA1C0D9FFF2
:1029F600A2C0DAFFDF50B5EC19F0D8B0D8D7000185
:102A0600A551D8B40DD0A6C0A3F0A7C0A4F0A31FAB
:102A1600A41FA34BA42BA3C0A1F0A4C0A2F0120034
:102A2600A6C0A1F0A7C0A2F0120059D0A1C0F6FF1F
:102A3600A2C0F7FFF86A050EF76403D00800F55048
:102A460005D0F6CFE9FFF7CFEAFFEF500009D8B47B
:102A56001BD0A3C0F6FFA4C0F7FF0800F5CFA7F070
:102A6600A1C0F6FFA2C0F7FFF86A0001050EF764E1
:102A760003D00800F55005D0F6CFE9FFF7CFEAFFFF
:102A8600EF50A719D8B426D0A3C0F6FFA4C0F7FF0D
:102A96000800F5500001A76FA86BA71FA81FA74B3A
:102AA600A82BA1C0F6FFA2C0F7FFF86A050EF764CF
:102AB60003D00800F55005D0F6CFE9FFF7CFEAFFBF
:102AC600EF500001A96FA951A725A16F000EA821FB
:102AD600A26F12000001A14BA22BA34BA42B000155
:102AE600A507D8A0A607A529A1E1A629D8A49ED7FF
:102AF600000EA26F000EA16F1200000E0001A46F5F
:102B0600A2AF0AD0A21FA11FA01F9F6D000EA02377
:102B1600A123A223010EA46F9EAF0AD09E1F9D1F64
:102B26009C1F9B6D000E9C239D239E23010EA41BC0
:102B3600000EA56F000EA66F000EA76F000EA86F01
:102B46009F51A011A111A211D8B42AD0010EA36FD2
:102B560006D0D8909F37A037A137A237A32BA2AFB4
:102B6600F8D7D890A537A637A737A8379F519B5DCA
:102B7600A0519C59A1519D59A2519E59D8A009D046
:102B86009F519B5FA0519C5BA1519D5BA2519E5B97
:102B9600A581D890A233A133A0339F33A32FE1D7C9
:102BA600A451D8B408D0A81FA71FA61FA56D000E54
:102BB600A623A723A823A5C09BF0A6C09CF0A7C068
:102BC6009DF0A8C09EF012000001A851A911D8A43A
:102BD60004D0D3C0A8F0D4C0A9F0A851A911D8A494
:102BE60005D0000EA86F000EA96F1200A8C0A1F0B4
:102BF600A9C0A2F0AAC0A3F0ABC0A4F0F1EC17F0F4
:102C06000001A151A827A251A923A8C0D9FFA9C094
:102C1600DAFFDF50D8A409D0000ED36F000ED46FB0
:102C2600D3C0A8F0D4C0A9F01200A8C0A1F0A9C0D2
:102C3600A2F0AAC0A3F0ABC0A4F01BEC18F00001F0
:102C4600A151A825D36FA251A921D46FD3C0D9FF12
:102C5600D4C0DAFFDF50D8B409D0D3C0D9FFD4C06E
:102C6600DAFF000EDF6ED34BD42B04D0000ED36FE9
:102C7600000ED46FA8C0A8F0A9C0A9F0120032D0E7
:102C8600AAC0A1F0ABC0A2F0ACC0A3F0ADC0A4F046
:102C9600ACC09BF0ADC09CF0DBEC18F09BC0A5F07F
:102CA6009CC0A6F018EC15F00001A151A211D8A401
:102CB60005D0AAC0AAF0ABC0ABF01200010EAA253F
:102CC6009B6F000EAB219C6FACC0F6FFADC0F7FF4B
:102CD6000800F5509D6F9E6B4FEC17F09BC0AAF055
:102CE6009CC0ABF00001AA51AB11D8B413D0AAC056
:102CF600F6FFABC0F7FFF86A050EF76403D00800CD
:102D0600F55005D0F6CFE9FFF7CFEAFFEF500009FF
:102D1600D8A4B6D7000E0001AA6F000EAB6F120042
:102D2600000E0001A06F9EAF06D09D6D9E1FD8B00D
:102D36009E2B010EA06F9CAF06D09B6D9C1FD8B03A
:102D46009C2B010EA01B000EA26F000EA16F9D51C1
:102D56009E11D8B41CD0010E9F6F04D0D8909D3719
:102D66009E379F2B9EAFFAD7D890A137A2379D5199
:102D76009B5D9E519C59D8A005D09D519B5F9E514D
:102D86009C5BA181D8909E339D339F2FEDD7A05198
:102D9600D8B404D0A16DA21FD8B0A22BA1C09BF0BD
:102DA600A2C09CF01200E1EC19F017EC1AF0A4ECAA
:102DB60019F0010E00019C6F060E9D6F45EC18F090
:102DC600290E00019D6F010E9E6F0DEC1AF09BC03F
:102DD6009FF09CC0A0F038EC19F0290E0001AA6FF4
:102DE600010EAB6F0E0EAC6F060EAD6F42EC16F019
:102DF6000001AA51AB11D8B403D01BEC19F0E0D7EF
:102E0600290E0001AA6F010EAB6F120EAC6F060EF3
:102E1600AD6F42EC16F00001AA51AB11D8B4D0D771
:102E26000BEC03F0CDD7000E0001856F81AF06D005
:102E3600806D811FD8B0812B010E856F83AF04D0C2
:102E4600826D831FD8B0832B82518311D8B418D0DA
:102E5600010E846F04D0D89082378337842B83AFDA
:102E6600FAD78251805D83518159D8A004D082510E
:102E7600805F8351815BD89083338233842FF1D76F
:102E86008551D8B404D0806D811FD8B0812B80C005
:102E960080F081C081F012009BC0F6FF9CC0F7FF56
:102EA600F86A050EF76403D00800F55005D0F6CF92
:102EB600E9FFF7CFEAFFEF5000019D19D8A405D02E
:102EC6009BC09BF09CC09CF012009B519F6F9C5135
:102ED600A06F9B4B9C2B9FC0F6FFA0C0F7FFF86A24
:102EE600050EF76403D00800F55005D0F6CFE9FFCC
:102EF600F7CFEAFFEF500009D8A4CED7000E0001A5
:102F06009B6F000E9C6F12000001E4BF28D0E451B5
:102F160003E1E305D8A023D0E3C0A9F0E4C0AAF0FA
:102F2600000EAABFFF0EAB6FAC6FBEEC17F0010E22
:102F36000101256F24695CEC13F0D5C0A3F0D6C05F
:102F4600A4F0C6EC19F0000E0101256F000E246FE7
:102F56005CEC13F0000E8C6E000E8A6E12000001FF
:102F6600E351E411D8A41200D5C0A3F0D6C0A4F052
:102F7600C6EC19F01200000E00019B6F090E9C6F43
:102F86003D0E9D6F000E9E6FA9C0ADF0AAC0AEF0BB
:102F9600ABC0AFF0ACC0B0F0020ED890AD37AE37D4
:102FA600AF37B037E82EF9D7040ED890AD37AE3725
:102FB600AF37B037E82EF9D7ADC09FF0AEC0A0F05E
:102FC600AFC0A1F0B0C0A2F080EC15F000019B05E7
:102FD600CB6EA9C0E3F0AAC0E4F01200000E000117
:102FE600A76F000EA66F04D0A14BA22BA64BA72B52
:102FF600A1C0D9FFA2C0DAFFDF50D8B414D0A3C055
:103006009BF0A4C09CF0A1C0D9FFA2C0DAFFDF509C
:10301600A56FA5519D6F9E6B4FEC17F000019B515C
:103026009C11D8A4E1D7A6C0A1F0A7C0A2F01200B7
:10303600000E0001A76F000EA66F04D0A14BA22BB5
:10304600A64BA72BA1C0D9FFA2C0DAFFDF50D8B488
:1030560014D0A3C09BF0A4C09CF0A1C0D9FFA2C00D
:10306600DAFFDF50A56FA5519D6F9E6B4FEC17F0F1
:1030760000019B519C11D8B4E1D7A6C0A1F0A7C00E
:10308600A2F01200000E0001A16F000EA06F11D079
:10309600A0519C259E6FA1519D219F6F9EC0F6FF5A
:1030A6009FC0F7FF0800F550F3EC19F00001A04BA4
:1030B600A12BA0519C259E6FA1519D219F6F9EC063
:1030C600F6FF9FC0F7FF0800F5500009D8B41200BC
:1030D600DFD7000E00019B6F090E9C6F3D0E9D6FA2
:1030E600000E9E6FE3C0ABF0E4C0ACF0AB3BAC3B74
:1030F600F00EAC17AB510F0BAC13F00EAB17ABC009
:103106009FF0ACC0A0F0000EA0BFFF0EA16FA26F93
:1031160080EC15F09BC0A9F09CC0AAF0120001C07B
:1031260003F002C004F0D89004320332D89004327F
:1031360003320350BE6ED8900230046E0130036E27
:10314600010E0316033A0346BD500318DF0B03189E
:10315600BD6E01C003F0010E0316033ABD500318FD
:10316600EF0B0318BD6E1200D90E0001D725D96EDC
:10317600000ED821DA6EAECFDFFFD90ED725D96E75
:10318600000ED821DA6EDF50FAEC19F00001D74BA9
:10319600D82BD7C080F0D8C081F0000E836F0A0EFE
:1031A600826F16EC17F080C0D7F081C0D8F01200FD
:1031B6009BC09FF09CC0A0F003D000019F4BA02BAA
:1031C6009FC0F6FFA0C0F7FF0800F5500009D8A47D
:1031D600F4D79BC09DF09CC09EF000019D1F9E1FD2
:1031E6009D4B9E2B9F519D259B6FA0519E219C6FB1
:1031F600120002EEDCF0100EEE6AE806FDE101EECA
:1032060029F00A0EEE6AE806FDE100EED3F0120E92
:10321600EE6AE806FDE100EE5CF01D0EEE6AE806D9
:10322600FDE179907992000EF86E0001D6EF16F066
:10323600000E00019C6F000E9B6F9CBF06D09C5138
:103246000FE10A0E9B5DD8B00BD0D90E9B25D96E27
:10325600000E9C21DA6E000EDF6E9B4B9C2BEDD789
:10326600000ED86F000ED76F12009DC0A1F09EC051
:10327600A2F005D00001A14BA22B9F4BA02B9FC013
:10328600D9FFA0C0DAFFA1C0E1FFA2C0E2FFDFCFF5
:10329600E7FFE750D8B41200EDD7C294C296C298A1
:1032A600C29AC282C280C2B2FED7C350C4CF03F054
:1032B600046A03C004F0036A0310056E0450066E28
:1032C60005C001F006C002F01200285029102A108D
:1032D6002B10D8B408D0000E281A000E291A000E9A
:1032E6002A1A800E2B1A28C028F029C029F02AC0D5
:1032F6002AF02BC02BF0120000019B519D03F3CF47
:103306009FF0F4CFA0F09B519E03F350A0279C5151
:103316009D03F350A0279FC09BF0A0C09CF0120015
:10332600948C948EAC98B896AC84CF0EAF6EAB8E60
:103336009E889E9AAC8AAB889D989F989D8A9F9AF4
:10334600120095909592959495969598959A959C38
:10335600959E9390939293949396000E8C6E000E86
:103366008A6E120000019D6F000E00019C6F3A0EDE
:103376009D6105D02F0E9D6502D0010E9C6F9CC0ED
:103386009BF09B31120008D00001A307D8A0A40728
:10339600C60E00D0E82EFDD70001A351A411D8B463
:1033A6001200F2D792680E0EC16EC08EC080C08227
:1033B600C084000EC46E000EC36E120013EC1AF029
:1033C60093EC19F001EC1AF0D5EC19F01200D35079
:1033D6008F0B6009D36ED350FC0B0209D36E12001B
:1033E60000019B6FACA2FED79BC0ADFF120000018F
:1033F600806FACA2FED780C0ADFF12009494090E78
:10340600BD6E9E949F8412001BEC1AF0CA80CA827D
:10341600CA841200D90E00019B6F000E9C6F120029
:10342600D08EF28EF28C1200D38CD38AD3981200EF
:06343600BD86BD841200FA
:020000040020DA
:08000000FFFFFFFFFFFFFFFF00
:020000040030CA
:0E000000FF881F00FF8381FF0FC00FE00F403D
:00000001FF
